{
  "contractName": "Ownable",
  "abi": [
    {
      "inputs": [],
      "stateMutability": "nonpayable",
      "type": "constructor"
    },
    {
      "inputs": [],
      "name": "isOwner",
      "outputs": [
        {
          "internalType": "bool",
          "name": "",
          "type": "bool"
        }
      ],
      "stateMutability": "view",
      "type": "function"
    }
  ],
  "bytecode": "0x608060405234801561001057600080fd5b50336000806101000a81548173ffffffffffffffffffffffffffffffffffffffff021916908373ffffffffffffffffffffffffffffffffffffffff160217905550610106806100606000396000f3fe6080604052348015600f57600080fd5b506004361060285760003560e01c80638f32d59b14602d575b600080fd5b60336047565b604051603e919060ab565b60405180910390f35b60008060009054906101000a900473ffffffffffffffffffffffffffffffffffffffff1673ffffffffffffffffffffffffffffffffffffffff163373ffffffffffffffffffffffffffffffffffffffff1614905090565b60a58160c4565b82525050565b600060208201905060be6000830184609e565b92915050565b6000811515905091905056fea26469706673582212209a79b73da3b35694d61b8c90f1c6e2c6cdc5848ccefadf2a35f5890d6480e6f164736f6c63430008060033",
  "immutableReferences": {},
  "source": "pragma solidity ^0.8.6;\r\n\r\ncontract Ownable {\r\n    address payable _owner;\r\n\r\n    constructor() {\r\n        _owner = payable(msg.sender);\r\n    }\r\n\r\n    modifier onlyOwner() {\r\n        require(msg.sender == _owner, \"You are not the owner\");\r\n        _;\r\n    }\r\n\r\n    function isOwner() public view returns(bool) {\r\n        return (msg.sender == _owner);\r\n    }\r\n}",
  "sourcePath": "C:\\Users\\DaviB\\OneDrive\\Desktop\\item_manager\\contracts\\Ownable.sol",
  "compiler": {
    "name": "solc",
    "version": "0.8.6+commit.11564f7e.Emscripten.clang"
  },
  "schemaVersion": "3.4.7",
  "updatedAt": "2022-04-18T13:22:22.290Z",
  "devdoc": {
    "kind": "dev",
    "methods": {},
    "version": 1
  },
  "userdoc": {
    "kind": "user",
    "methods": {},
    "version": 1
  }
}